:10000000481F0010C50000000000000000000000B4
:10001000B5010000B5010000B501000000000000BE
:10002000000000000000000000000000B50100001A
:10003000B5010000000000006D2100001921000042
:10004000B5010000B5010000B5010000B5010000D8
:10005000B5010000950F0000B5010000B5010000DA
:10006000D5120000B501000041170000B5010000E5
:10007000B5010000B5010000B5010000B5010000A8
:10008000B5010000B5010000B5010000B501000098
:10009000B5010000B5010000B5010000B501000088
:1000A000B5010000B5010000B5010000B501000078
:1000B000B5010000B5010000B5010000B501000068
:1000C000B5010000684620F007018D4681B583B078
:1000D00000AF00F0C5FA43F25402C0F2000240F251
:1000E0000003C1F200039A421DD043F25403C0F250
:1000F00000033B6040F20003C1F200037B600BE0B1
:100100003B681A687B681A607B6803F104037B60B4
:100110003B6803F104033B607A6840F2FC03C1F2E0
:1001200000039A42ECD343F25402C0F2000240F2C0
:100130000003C1F200039A421DD043F25403C0F2FF
:1001400000033B6040F20003C1F200037B600BE060
:100150003B681A687B681A607B6803F104037B6064
:100160003B6803F104033B607A6840F20003C1F28C
:1001700000039A42ECD340F2FC03C1F200037B601F
:1001800007E07B684FF000021A607B6803F104030C
:100190007B607A6841F24873C1F200039A42F0D35F
:1001A00002F036FE07F10C07BD46BDE881408546EA
:1001B000704700BF80B400AFFEE700BF4FF00004FF
:1001C000EFF309842046704723461846034683F31D
:1001D000098870474FF00004EFF308842046704709
:1001E00023461846034683F30888704790B482B0CC
:1001F00000AF4FF000037B60EFF312847C607B68FC
:10020000184607F10807BD4690BC704780B483B01C
:1002100000AF78607B6883F3118807F10C07BD4657
:1002200080BC704790B482B000AF4FF000037B6099
:10023000EFF310847C607B68184607F10807BD4621
:1002400090BC704780B483B000AF78607B6883F364
:10025000108807F10C07BD4680BC704790B482B08F
:1002600000AF4FF000037B60EFF313847C607B688A
:10027000184607F10807BD4690BC704780B483B0AC
:1002800000AF78607B6883F3138807F10C07BD46E5
:1002900080BC704790B482B000AF4FF000037B6029
:1002A000EFF314847C607B68184607F10807BD46AD
:1002B00090BC704780B483B000AF78607B6883F3F4
:1002C000148807F10C07BD4680BC704790B484B019
:1002D00000AF78604FF00003FB607B681CBAFC60E5
:1002E000FB68184607F11007BD4690BC704700BF79
:1002F00090B484B000AF0346FB804FF00003FB6076
:10030000FB885CBAFC60FB68184607F11007BD4625
:1003100090BC704790B484B000AF0346FB804FF0B0
:100320000003FB60FB88DCBAFC60FB68184607F141
:100330001007BD4690BC704790B484B000AF7860A1
:100340004FF00003FB607B6893FAA3F4FC60FB684A
:10035000184607F11007BD4690BC704790B484B0B2
:1003600000AF78604FF00003FB737B68D3E84F4F1A
:10037000FC73FB7B184607F11007BD4690BC704725
:1003800090B484B000AF78604FF00003FB817B68CD
:10039000D3E85F4FFC81FB89184607F11007BD4683
:1003A00090BC704790B484B000AF78604FF0000309
:1003B000FB607B6853E8004FFC60FB68184607F160
:1003C0001007BD4690BC704790B484B000AF0346A0
:1003D0003960FB714FF00003FB603B68FA79C3E8BA
:1003E000442FFC60FB68184607F11007BD4690BC1F
:1003F000704700BF90B484B000AF03463960FB8003
:100400004FF00003FB603B68FA88C3E8542FFC60A0
:10041000FB68184607F11007BD4690BC704700BF47
:1004200090B484B000AF786039604FF00003FB6097
:100430003B687A6843E80024FC60FB68184607F1D3
:100440001007BD4690BC704780B400AF4FF44043E6
:10045000C4F20F03D3F888304FEA136303F00303A9
:10046000032B40F0A6804FF44043C4F20F03D3F8AF
:100470000C3103F00303032B00F2EE8001A252F8CB
:1004800023F000BF95040000F504000057050000AC
:10049000950400004FF44043C4F20F03D3F88830B2
:1004A0004FEA43434FEA534303F101024FF49053A1
:1004B000C0F27A0303FB02F24FF44043C4F20F038D
:1004C000D3F888304FEA1343DBB203F10103B2FBE8
:1004D000F3F24FF44043C4F20F03D3F80431DBB21C
:1004E00003F10103B2FBF3F240F20003C1F2000397
:1004F0001A60B2E04FF44043C4F20F03D3F88830DF
:100500004FEA43434FEA534303F101024FF4585378
:10051000C0F26E1303FB02F24FF44043C4F20F0328
:10052000D3F888304FEA1343DBB203F10103B2FB87
:10053000F3F24FF44043C4F20F03D3F80431DBB2BB
:1005400003F10103B2FBF3F240F20003C1F2000336
:100550001A6000BF81E04FF44043C4F20F03D3F8A8
:1005600088304FEA43434FEA534303F101034FF40A
:100570007A4202FB03F24FF44043C4F20F03D3F874
:1005800088304FEA1343DBB203F10103B2FBF3F20D
:100590004FF44043C4F20F03D3F80431DBB203F14C
:1005A0000103B2FBF3F240F20003C1F200031A6050
:1005B00052E04FF44043C4F20F03D3F80C3103F080
:1005C0000303032B49D801A252F823F0DD050000F4
:1005D0000706000031060000DD0500004FF440432F
:1005E000C4F20F03D3F80431DBB203F101024FF47C
:1005F0001063C0F23D03B3FBF2F240F20003C1F21C
:1006000000031A6029E04FF44043C4F20F03D3F80B
:100610000431DBB203F101024FF4D853C0F2B70347
:10062000B3FBF2F240F20003C1F200031A6014E0DF
:100630004FF44043C4F20F03D3F80431DBB203F1AB
:1006400001034FF4FA42B2FBF3F240F20003C1F2AD
:1006500000031A6000BF00E000BFBD4680BC7047C9
:1006600080B400AF4FF44043C4F20F034FF02002B8
:10067000C3F8A02100BF4FF44043C4F20F03D3F8E6
:10068000A03103F04003002BF5D04FF44043C4F2F7
:100690000F034FF00302C3F804214FF44043C4F2A8
:1006A0000F034FF00102C3F80C214FF44043C4F292
:1006B0000F034FF06302C0F20502C3F884204FF429
:1006C0004043C4F20F034FF0AA02C3F88C204FF44A
:1006D0004043C4F20F034FF05502C3F88C204FF48F
:1006E0004043C4F20F034FF00102C3F880204FF4DF
:1006F0004043C4F20F034FF0AA02C3F88C204FF41A
:100700004043C4F20F034FF05502C3F88C2000BFE2
:100710004FF44043C4F20F03D3F8883003F08063F2
:10072000002BF5D04FF44043C4F20F034FF0030207
:10073000C3F880204FF44043C4F20F034FF0AA02E5
:10074000C3F88C204FF44043C4F20F034FF055021E
:10075000C3F88C2000BF4FF44043C4F20F03D3F81A
:10076000883003F04073002BF5D04FF44043C4F2BF
:100770000F034FF02302C3F8A4204FF44043C4F208
:100780000F034FF0AA02C3F8AC204FF44043C4F269
:100790000F034FF05502C3F8AC204FF44043C4F2AE
:1007A0000F034FF00102C3F8A0204FF44043C4F2FE
:1007B0000F034FF0AA02C3F8AC204FF44043C4F239
:1007C0000F034FF05502C3F8AC2000BF4FF4404375
:1007D000C4F20F03D3F8A83003F48063002BF5D0E4
:1007E0004FF44043C4F20F034FF00302C3F8A020BC
:1007F0004FF44043C4F20F034FF0AA02C3F8AC20F9
:100800004FF44043C4F20F034FF05502C3F8AC203D
:1008100000BF4FF44043C4F20F03D3F8A83003F4F1
:100820004073002BF5D04FF44043C4F20F034FF058
:100830000002C3F8A8214FF44043C4F20F034FF065
:100840000002C3F8AC214FF44043C4F20F0348F256
:10085000DE72C0F22842C3F8C4204FF44043C4F211
:100860000F034FF00002C3F8C8214FF44043C4F215
:100870000F0343F23A021A60BD4680BC704700BFC6
:1008800080B584B000AFF860B9607A603B6002F078
:100890004FFB03464FF016021A604FF0FF33184625
:1008A00007F11007BD4680BD80B485B000AFF86089
:1008B000B9607A603B604FF00003184607F11407F7
:1008C000BD4680BC704700BF80B485B000AFF86003
:1008D000B9607A603B603B68184607F11407BD4673
:1008E00080BC704780B483B000AF786039604FF04F
:1008F0000003184607F10C07BD4680BC704700BFD7
:1009000080B584B000AF7860396040F2FC03C1F27A
:1009100000031B68002B08D140F2FC03C1F2000366
:1009200041F64872C1F200021A6040F2FC03C1F2C3
:1009300000031B68FB6040F2FC03C1F200031A686D
:100940003B68D2186B469A4208D902F0F1FA034686
:100950004FF00C021A604FF0FF330CE040F2FC0342
:10096000C1F200031A683B68D21840F2FC03C1F2DE
:1009700000031A60FB68184607F11007BD4680BDEA
:1009800080B584B000AFF860B9607A607B684FF0E2
:100990003C0218464FF0000113461A4602F0CEFA08
:1009A0007B684FF400525A604FF00003184607F17D
:1009B0001007BD4680BD00BF80B483B000AF786033
:1009C00039604FF00103184607F10C07BD4680BCA3
:1009D000704700BF80B483B000AF0346FB714FF493
:1009E0006143CEF2000397F907204FEA5212F979DA
:1009F00001F01F014FF0010000FA01F143F822104D
:100A000007F10C07BD4680BC704700BF80B485B0BD
:100A100000AF78604FF00003FB604FF00003BB6055
:100A20004FF00003FB600EE04FF00003BB6003E0FB
:100A3000BB6803F10103BB60BB68222BF8DDFB68D8
:100A400003F10103FB60FA687B689A42ECDB07F173
:100A50001407BD4680BC704780B500AF4CF2400320
:100A6000C2F209034CF24002C2F20902126822F0FB
:100A7000F0021A604CF22003C2F209034CF2200289
:100A8000C2F20902D26942F08072DA614CF22003AC
:100A9000C2F209034CF22002C2F20902926942F446
:100AA00040029A6100BF4CF24003C2F209035B6945
:100AB00003F08003002BF6D14CF22003C2F20903AD
:100AC0004CF22002C2F20902D26942F44002DA6119
:100AD0004CF24003C2F209034CF24002C2F2090296
:100AE000126842F0F0021A604FF06400FFF78EFFC8
:100AF00080BD00BF80B584B000AF0346FB714FF0EE
:100B00000003FB734FF00003BB60FB79FB73FB7BBF
:100B10004FEA1313FB73FB7B4FEA0313DBB2BB609B
:100B20004CF22003C2F209034FF08072DA614CF2FA
:100B30002003C2F209034FF480029A614CF2400391
:100B4000C2F209034FF0F002DA614CF24003C2F244
:100B50000903BA689A614CF22003C2F209034FF408
:100B60008002DA61FB79FB73FB7B03F00F03FB73FD
:100B7000FB7B4FEA0313DBB2BB604FF06400FFF76F
:100B800045FF4CF22003C2F209034CF22002C2F2EC
:100B90000902D26942F08072DA614CF22003C2F29B
:100BA00009034CF22002C2F20902926942F4800267
:100BB0009A614CF24003C2F209034FF0F002DA618D
:100BC0004CF24003C2F20903BA689A614CF2200366
:100BD000C2F209034CF22002C2F20902D26942F4C5
:100BE0008002DA61FFF738FF07F11007BD4680BDCC
:100BF00080B400AF4CF22003C2F209034CF2200291
:100C0000C2F20902126842F0F0721A604CF220033C
:100C1000C2F209034CF22002C2F20902D26942F088
:100C2000F072DA614CF24003C2F209034CF2400266
:100C3000C2F20902126842F0F0021A60BD4680BC9E
:100C4000704700BF80B500AF4FF00100FFF752FFC3
:100C500080BD00BF80B584B000AF786039604FF0D0
:100C60000003FB607B68012B06D93B680F2B03D97F
:100C70004FF0FF33FB6016E07B68002B08D13B6828
:100C8000DBB2A3F18003DBB21846FFF733FF0AE0C3
:100C90007B68012B07D13B68DBB2A3F14003DBB2D9
:100CA0001846FFF727FFFB68184607F11007BD46F7
:100CB00080BD00BF80B584B000AF0346FB714FF02C
:100CC0000003FB734FF00003BB60FB79FB73FB7BFE
:100CD0004FEA1313FB73FB7B4FEA0313DBB2BB60DA
:100CE0004CF22003C2F209034CF22002C2F20902C4
:100CF000926942F0A0729A614CF24003C2F2090379
:100D00004FF0F002DA614CF24003C2F20903BA6814
:100D10009A614CF22003C2F209034CF22002C2F2A3
:100D20000902D26942F48002DA61FB79FB73FB7B32
:100D300003F00F03FB73FB7B4FEA0313DBB2BB60D3
:100D40004CF22003C2F209034CF22002C2F2090263
:100D5000926942F0A0729A614CF24003C2F2090318
:100D60004FF0F002DA614CF24003C2F20903BA68B4
:100D70009A614CF22003C2F209034CF22002C2F243
:100D80000902D26942F48002DA61FFF765FE07F1D9
:100D90001007BD4680BD00BF80B582B000AF78604F
:100DA0007B68DBB21846FFF785FF07F10807BD46F1
:100DB00080BD00BF80B584B000AF03463960FB71D1
:100DC0004FF01003FB73FB7918464FF00001FFF75B
:100DD00041FF08E03B681B781846FFF7DDFF3B68E2
:100DE00003F101033B603B681B78002B0BD0FB7BBE
:100DF000002B0CBF00230123DBB2FA7B02F1FF3290
:100E0000FA73002BE6D107F11007BD4680BD00BF85
:100E100080B400AF4CF22003C2F209034CF220026E
:100E2000C2F20902126842F400121A604CF2200366
:100E3000C2F209034CF22002C2F20902926942F4A2
:100E400000129A61BD4680BC704700BF80B400AFFD
:100E50004CF22003C2F209034CF22002C2F2090252
:100E6000126842F400121A604CF22003C2F2090325
:100E70004CF22002C2F20902D26942F40012DA6195
:100E8000BD4680BC704700BF80B500AFFFF7B0FE25
:100E90004FF02800FFF72EFE4FF00200FFF72AFE6A
:100EA0004FF00600FFF726FE4FF00C00FFF722FE82
:100EB0004FF000004FF00001FFF7CCFEFFF7C2FE3D
:100EC00080BD00BF80B485B000AF0346FB714FF01A
:100ED0000003FB7397F907301F2B06DD97F90730E6
:100EE0007F2B02D04FF00103FB73FB7B184607F109
:100EF0001407BD4680BC704780B586B000AF7860EF
:100F00007B68002B04D14FF03000FFF745FF3CE039
:100F10004FF000037B6123E079684CF6CD43CCF6BB
:100F2000CC43A3FB01234FEAD30213464FEA8303CA
:100F30009B184FEA4303CA1AD2B27B6907F1080132
:100F4000CB181A707B6903F101037B617A684CF658
:100F5000CD43CCF6CC43A3FB02134FEAD3037B6013
:100F60007B68002BD8D10DE07B6903F1FF337B61F7
:100F70007B6907F10802D3181B7803F13003184688
:100F8000FFF70AFF7B69002BEED107F11807BD467A
:100F900080BD00BF80B483B000AF4FF44043C4F2C3
:100FA00000039B68BB71BB794FEA5303BB71BB79EC
:100FB00003F00703BB71BB79032B40F0BA804FF4F9
:100FC0004043C4F200031B7D7B717B7903F09E03D9
:100FD000002B0CD07A7941F2FC33C1F200031A6085
:100FE0004FF44043C4F200031B78FB716CE17B7942
:100FF00003F00103DBB2002B00F0668140F208131E
:10100000C1F200031A684FF44043C4F200031B7896
:10101000D9B240F2C853C1F20003995440F2101300
:10102000C1F200031A6840F20813C1F20003196804
:1010300040F2C853C1F200035B5CD9B240F62033E2
:10104000C1F20003995440F20813C1F200031B6877
:1010500003F1010240F20813C1F200031A6040F2EA
:101060001013C1F200031B6803F1010240F21013D8
:10107000C1F200031A6041F21C43C1F200034FF0B9
:1010800001025A7140F21013C1F200031B6803F110
:10109000FF3240F62033C1F200039B5CDBB20D2B24
:1010A0001CD140F21013C1F200031B6803F1FF32A0
:1010B00040F62033C1F200034FF00001995440F292
:1010C0001013C1F200034FF000021A6040F2041343
:1010D000C1F200034FF001021A701AE040F210133F
:1010E000C1F200031B6803F1FF3240F62033C1F266
:1010F00000039B5CDBB2082B0BD140F21013C1F252
:1011000000031B68A3F1020240F21013C1F20003B6
:101110001A6040F20813C1F200031B68402B40F034
:10112000D38040F20813C1F200034FF000021A60AE
:10113000CAE0BB79022B40F09A8040F20813C1F25A
:1011400000031A684FF44043C4F200031B78D9B27D
:1011500040F2C853C1F20003995440F21013C1F297
:1011600000031A6840F20813C1F20003196840F244
:10117000C853C1F200035B5CD9B240F62033C1F220
:101180000003995440F20813C1F200031B6803F1F5
:10119000010240F20813C1F200031A6040F210137A
:1011A000C1F200031B6803F1010240F21013C1F207
:1011B00000031A6041F21C43C1F200034FF0010228
:1011C0005A7140F21013C1F200031B6803F1FF32A1
:1011D00040F62033C1F200039B5CDBB20D2B1CD127
:1011E00040F21013C1F200031B6803F1FF3240F616
:1011F0002033C1F200034FF00001995440F2101364
:10120000C1F200034FF000021A6040F20413C1F271
:1012100000034FF001021A701AE040F21013C1F2FD
:1012200000031B6803F1FF3240F62033C1F20003D4
:101230009B5CDBB2082B0BD140F21013C1F2000310
:101240001B68A3F1020240F21013C1F200031A60FE
:1012500040F20813C1F200031B68402B34D140F266
:101260000813C1F200034FF000021A602CE0BB79B2
:10127000062B0CD141F2FC33C1F200031B6843F48E
:10128000807241F2FC33C1F200031A601CE0BB79AA
:10129000012B19D14FF44043C4F200031B7D7B7135
:1012A0007B7903F02003002B07D040F20603C1F244
:1012B00000034FF001021A7006E040F20603C1F28B
:1012C00000034FF000021A7007F10C07BD4680BC06
:1012D000704700BF80B483B000AF4FF44043C4F206
:1012E00009039B68BB71BB794FEA5303BB71BB79A0
:1012F00003F00703BB71BB79032B49D14FF4404383
:10130000C4F209031B7D7B717B7903F09E03002BE4
:101310000CD07A7940F6D423C1F200031A604FF45E
:101320004043C4F209031B78FB718CE07B7903F026
:101330000103DBB2002B00F0868040F20C13C1F2F7
:1013400000031A684FF44043C4F209031B78D9B272
:1013500040F26853C1F20003995440F20C13C1F2F9
:1013600000031B6803F1010240F20C13C1F20003F9
:101370001A6040F20C13C1F200031B68402B62D1CB
:1013800040F20C13C1F200034FF000021A605AE061
:10139000BB79022B2AD140F20C13C1F200031A6868
:1013A0004FF44043C4F209031B78D9B240F26853AA
:1013B000C1F20003995440F20C13C1F200031B6800
:1013C00003F1010240F20C13C1F200031A6040F273
:1013D0000C13C1F200031B68402B34D140F20C13F4
:1013E000C1F200034FF000021A602CE0BB79062B1B
:1013F0000CD140F6D423C1F200031B6843F4807281
:1014000040F6D423C1F200031A601CE0BB79012B23
:1014100019D14FF44043C4F209031B7D7B717B79E2
:1014200003F02003002B07D040F20703C1F20003B2
:101430004FF001021A7006E040F20703C1F2000308
:101440004FF000021A7007F10C07BD4680BC7047D0
:1014500080B586B000AF786039607B68002B40F0C3
:1014600086804FF44043C4F202034FF44042C4F27A
:101470000202126822F0F0021A604FF44043C4F2F4
:1014800002034FF44042C4F20202126842F05002DA
:101490001A604FF44043C4F20F03D3F8A8314FEA67
:1014A000931303F003033B613B69022B13D0032B1F
:1014B0001AD0012B08D040F20003C1F200031B68D0
:1014C0004FEA93037B6118E040F20003C1F200038E
:1014D0001B687B6111E040F20003C1F200031B684E
:1014E0004FEA53037B6108E040F20003C1F20003BE
:1014F0001B684FEAD3037B6100BF4FF44043C4F243
:1015000000034FF083021A737B694FEA13123B68A2
:10151000B2FBF3F3FB604FF44043C4F20003FA68FC
:101520004FEA1222D2B21A714FF44043C4F20003C0
:10153000FA68D2B21A704FF44043C4F200034FF07D
:1015400003021A734FF44043C4F200034FF0070242
:101550001A724FF00500FFF73DFA4FF44043C4F212
:1015600000034FF007025A604FF001038BE07B68E5
:10157000012B40F086804FF44043C4F202034FF445
:101580004042C4F20202126822F00F021A604FF4C5
:101590004043C4F202034FF44042C4F20202126814
:1015A00042F00A021A604FF44043C4F20F03D3F82A
:1015B000AC314FEA934303F003033B613B69022BD9
:1015C00013D0032B1AD0012B08D040F20003C1F234
:1015D00000031B684FEA93037B6118E040F20003AD
:1015E000C1F200031B687B6111E040F20003C1F20D
:1015F00000031B684FEA53037B6108E040F20003DD
:10160000C1F200031B684FEAD3037B6100BF4FF4B4
:101610004043C4F209034FF083021A737B694FEA17
:1016200013123B68B2FBF3F3FB604FF44043C4F288
:101630000903FA684FEA1222D2B21A714FF44043FA
:10164000C4F20903FA68D2B21A704FF44043C4F2EC
:1016500009034FF003021A734FF44043C4F2090325
:101660004FF007021A724FF00800FFF7B3F94FF47A
:101670004043C4F209034FF007025A604FF00103E0
:1016800001E04FF00003184607F11807BD4680BD82
:1016900080B485B000AFF860B9607A60FB68002B59
:1016A00046D120E000BF40F20603C1F200031B78E0
:1016B000DBB203F00103002BF5D04FF44043C4F23A
:1016C0000003BA6812781A7040F20603C1F20003F0
:1016D0004FF000021A70BB6803F10103BB607B6826
:1016E00003F1FF337B607B68002BDBD123E000BF7D
:1016F00040F20703C1F200031B78DBB203F00103E1
:10170000002BF5D04FF44043C4F20903BA681278B5
:101710001A7040F20703C1F200034FF000021A7082
:10172000BB6803F10103BB607B6803F1FF337B609F
:101730007B68002BDBD107F11407BD4680BC7047E6
:1017400080B483B000AF4FF44043C4F201035B6840
:10175000FB71FB79A3F10803502B00F2088201A270
:1017600052F823F0A91800006F1B00006F1B000047
:101770006F1B00006F1B00006F1B00006F1B000041
:101780006F1B0000DD1800006F1B00006F1B0000C6
:101790006F1B00006F1B00006F1B00006F1B000021
:1017A0006F1B00001F1900006F1B00006F1B000063
:1017B0006F1B00006F1B00006F1B00006F1B000001
:1017C0006F1B0000511B00006F1B00006F1B00000F
:1017D0006F1B00006F1B00006F1B00006F1B0000E1
:1017E0006F1B0000871900006F1B00006F1B0000BB
:1017F0006F1B00006F1B00006F1B00006F1B0000C1
:101800006F1B0000871900006F1B00006F1B00009A
:101810006F1B00006F1B00006F1B00006F1B0000A0
:101820006F1B00006F1B00006F1B00006F1B000090
:101830006F1B00006F1B00006F1B00006F1B000080
:101840006F1B0000951A00006F1B00006F1B00004B
:101850006F1B00006F1B00006F1B00006F1B000060
:101860006F1B0000511B00006F1B00006F1B00006E
:101870006F1B00006F1B00006F1B00006F1B000040
:101880006F1B0000B31A00006F1B00006F1B0000ED
:101890006F1B00006F1B00006F1B00006F1B000020
:1018A0006F1B0000B31A00004FF44043C4F2010361
:1018B00040F60032C1F200021278D2B29A604FF4C0
:1018C0004043C4F201034FF028029A6140F214131E
:1018D000C1F200034FF001021A6050E140F660339C
:1018E000C1F200031B68002B0AD14FF44043C4F23D
:1018F000010340F60032C1F200029278D2B29A603F
:101900004FF44043C4F201034FF028029A6140F2C1
:101910001413C1F200034FF002021A602FE140F2EB
:101920001413C1F200031B68012B24D14FF4404370
:10193000C4F2010340F22412C1F20002126802F163
:10194000010140F60032C1F20002525CD2B29A604C
:1019500040F22413C1F200031B6803F1010240F2BC
:101960002413C1F200031A6040F21413C1F2000301
:101970004FF004021A604FF44043C4F201034FF0E9
:1019800008029A61FBE040F22413C1F200031A68D6
:1019900040F61073C1F200031B689A424ED04FF418
:1019A0004043C4F2010340F22412C1F20002126863
:1019B00002F1010140F60032C1F20002525CD2B2E3
:1019C0009A6040F22413C1F200031B6803F1010284
:1019D00040F22413C1F200031A6040F22413C1F252
:1019E00000031A6840F61073C1F200031B689A42A4
:1019F00007D040F21413C1F200034FF004021A6042
:101A000040E040F21413C1F200034FF005021A60E7
:101A100040F20023C1F200031B68002B32D04FF4C8
:101A20004043C4F201034FF020021A6040F2141345
:101A3000C1F200034FF003021A6023E040F20023DA
:101A4000C1F200031B68002B0ED04FF44043C4F2D8
:101A500001034FF020021A6040F21413C1F2000398
:101A60004FF003021A600DE040F21413C1F20003BC
:101A70004FF005021A604FF44043C4F201034FF0E7
:101A800010021A604FF44043C4F201034FF0080201
:101A90009A6174E04FF44043C4F201034FF0040232
:101AA0001A604FF44043C4F201034FF008029A61F8
:101AB00065E040F22013C1F200031B6803F103024A
:101AC0004FF44043C4F201039B68D9B240F600339F
:101AD000C1F20003995440F22013C1F200031B68C5
:101AE00003F1010240F22013C1F200031A6040F238
:101AF0002013C1F200031A6840F20023C1F2000370
:101B00001B689A4207D040F21413C1F200034FF051
:101B100004021A600DE040F22013C1F200034FF0FE
:101B200000021A6040F21413C1F200034FF00502E4
:101B30001A604FF44043C4F201034FF004021A60EC
:101B40004FF44043C4F201034FF008029A6116E0DB
:101B50004FF44043C4F201034FF008029A6140F28F
:101B60001413C1F200034FF005021A6007E04FF4AE
:101B70004043C4F201034FF008029A6100BF07F12D
:101B80000C07BD4680BC704780B483B000AF4FF0F7
:101B900000037B604FF000033B604FF44043C4F20E
:101BA00001034FF020021A6040F21413C1F2000347
:101BB0001B68012B03D14FF001033B600FE07A68F3
:101BC0004FF6FE73C0F2FF039A4203D94FF00003B1
:101BD0003B6004E07B6803F101037B60E4E73B6862
:101BE000184607F10C07BD4680BC704780B400AFB3
:101BF0004FF44043C4F201034FF010021A604FF457
:101C00004043C4F201034FF008029A6100BF4FF451
:101C10004043C4F201031B6803F01003002BF6D10C
:101C20004FF001031846BD4680BC704780B582B0B6
:101C300000AF78604FF44043C4F20F034FF44042CA
:101C4000C4F20F02D2F8C42042F40022C3F8C42028
:101C50004FF44043C4F202034FF44042C4F2020284
:101C6000526822F070725A604FF44043C4F202038B
:101C70004FF44042C4F20202526842F0A0725A602D
:101C80004FF44043C4F201034FF06C029A614FF4E9
:101C90004043C4F201034FF080025A614FF44043C5
:101CA000C4F201034FF080021A617B68022B06D157
:101CB0004FF44043C4F201034FF02A02DA604FF0C0
:101CC0000A00FEF787FE4FF44043C4F201034FF0D1
:101CD00040021A604FF00103184607F10807BD469D
:101CE00080BD00BF80B500AF40F21413C1F2000305
:101CF0004FF000021A6040F22013C1F200034FF0CF
:101D000000021A6040F22413C1F200034FF00002F7
:101D10001A60FFF739FF0346012B05D0FFF766FF76
:101D20004FF000030CE000BF40F21413C1F20003B7
:101D30001B68052BF7D1FFF759FF00BF4FF00103D8
:101D4000184680BD80B582B000AF40F6D823C1F2FE
:101D500000034FF000021A604FF001004FF41651DB
:101D6000FFF776FB4FF000004FF41651FFF770FBC2
:101D70004FF0010042F6C871C0F200014FF00202BC
:101D8000FFF786FC4FF000037B6036E041F2C003B2
:101D9000C1F200037A684FF0010143F8221040F2CB
:101DA0004C53C1F200037A684FF0000143F822104F
:101DB00040F20863C1F200037A684FF0000143F873
:101DC000221040F66432C1F2000279680B464FEAF5
:101DD00083035B184FEA8303D3184FF000021A7095
:101DE00041F21C43C1F200037A689B184FF00102D4
:101DF0001A707B6803F101037B607B68062BC5DDED
:101E000007F10807BD4680BD80B485B000AFF8601B
:101E1000B9607A6040F20013C1F200031A68F968F1
:101E200041F20043C1F2000343F8221040F20013D4
:101E3000C1F200031A6840F61473C1F20003B968D6
:101E400043F8221040F20013C1F200031A6840F276
:101E5000A853C1F20003796843F8221040F200133E
:101E6000C1F200031B6803F1010240F20013C1F24A
:101E700000031A6007F11407BD4680BC704700BF1D
:101E800080B500AF41F6D170C0F2000020494FF696
:101E9000FF72FFF7B9FF41F6C970C0F200001D499B
:101EA00040F6FF72FFF7B0FF40F2FC13C1F20003EF
:101EB0004FF000021A604EF21003CEF200034EF211
:101EC0001002CEF20002126842F001021A604EF2D5
:101ED0001003CEF200034EF21002CEF2000212689E
:101EE00042F002021A604EF21003CEF200034EF2EC
:101EF0001002CEF20002126842F004021A604EF2A2
:101F00001003CEF200036FF07F425A6080BD00BF25
:101F1000B0070010BC10001080B400AF40F2040302
:101F2000C1F200031B889BB21AB240F2A853C1F25F
:101F3000000353F822204EF21003CEF200039B68F8
:101F4000D21A40F2FC13C1F200031B68D21840F20F
:101F5000FC13C1F200031A604EF21003CEF200032C
:101F60004FF000029A604FF46D43CEF200034FF43D
:101F70006D42CEF20002526842F080525A60BD4675
:101F800080BC704780B582B000AF786042F23132D9
:101F9000C0F2000240F20403C1F200031B889BB2AE
:101FA00019B20B464FEA83035B184FEA83031946C5
:101FB00040F66433C1F20003CB18184679689047A5
:101FC00007F10807BD4680BD80B400AFFEE700BF43
:101FD00080B500AF7FE040F6D823C1F200031A6855
:101FE00040F2C853C1F200039B5CDBB2082B2ED138
:101FF00040F6D823C1F200031B681A4640F2C853CA
:10200000C1F20003D3184FF0000019464FF001024F
:10201000FFF73EFB4FF0000042F6CC71C0F200012A
:102020004FF00102FFF734FB40F6D823C1F2000362
:102030001B681A4640F2C853C1F20003D3184FF090
:10204000000019464FF00102FFF722FB29E040F69D
:10205000D823C1F200031A6840F2C853C1F200034A
:102060009B5CDBB20D2B0AD14FF0000042F6D07121
:10207000C0F200014FF00202FFF70AFB11E040F648
:10208000D823C1F200031B681A4640F2C853C1F2BC
:102090000003D3184FF0000019464FF00102FFF77C
:1020A000F7FA40F6D823C1F200031B6803F10102DE
:1020B00040F6D823C1F200031A6040F6D823C1F2DB
:1020C00000031B68402B06D140F6D823C1F2000361
:1020D0004FF000021A6040F6D823C1F200031B68DB
:1020E0001A4640F20813C1F200031B689A427FF4BB
:1020F00072AF40F20403C1F200031B889BB21AB214
:1021000041F21C43C1F200034FF000019954FFF764
:1021100003FF00BFDFE700BF80B400AF40F204035D
:10212000C1F200031B889BB21AB240F2A853C1F25D
:10213000000353F8222040F2FC13C1F200031B6895
:10214000D21840F2FC13C1F200031A604FF46D4341
:10215000CEF200034FF46D42CEF20002526842F01C
:1021600080525A60BD4680BC704700BF2DE9F00F19
:10217000EFF308831A4641F22443C1F200031A60C8
:1021800040F20403C1F200031B889BB21AB241F271
:102190002443C1F200031B68194640F6E423C1F250
:1021A000000343F8221000B542F6D903C0F2000341
:1021B00098475DF804EB40F20403C1F200031B886A
:1021C0009BB21AB241F2C003C1F2000353F82230AD
:1021D000012B75D1EFF308831A4641F22443C1F273
:1021E00000031A6040F20403C1F200031B889BB293
:1021F0001AB240F61473C1F2000353F82230A3F16F
:10220000040240F20403C1F200031B889BB219B21E
:1022100041F20043C1F2000353F82130136040F251
:102220000403C1F200031B889BB21AB240F6147378
:10223000C1F2000353F8222041F22443C1F200030B
:102240001B68DB6B13604EF21003CEF2000340F20A
:102250000402C1F20002128892B211B240F2A852F6
:10226000C1F2000252F821205A604EF21003CEF261
:1022700000034FF000029A6040F20403C1F2000331
:102280001B889BB21AB240F61473C1F2000353F8D4
:102290002230A3F13C031C4684F3088840F2040377
:1022A000C1F200031B889BB21AB241F2C003C1F213
:1022B00000034FF0000143F82210BDE8F00F704713
:1022C0004EF21003CEF2000340F20402C1F200020B
:1022D000128892B211B240F2A852C1F2000252F832
:1022E00021205A604EF21003CEF200034FF000029C
:1022F0009A6040F20403C1F200031B889BB21AB239
:1023000040F6E423C1F2000353F822301A4641F2AA
:102310002443C1F200031A6041F22443C1F20003D6
:102320001B681B4683F30888BDE8F00F704700BFA9
:1023300080B483B000AF786039600BE03B681A78F6
:102340007B681A707B6803F101037B603B6803F1D3
:1023500001033B603B681B78002BEFD17B684FF09B
:1023600000021A7007F10C07BD4680BC704700BF21
:1023700080B483B000AF7860396004E03B681B78BC
:10238000DBB2002B15D03B681B78DAB27B681B7878
:10239000DBB29A4214BF00230123DBB23A6802F198
:1023A00001023A607A6802F101027A60002BE5D1FD
:1023B00000E000BF3B681B78DBB21A467B681B78E5
:1023C000DBB2D31A184607F10C07BD4680BC704734
:1023D00080B485B000AFF860B9607A60BB681A78E5
:1023E000FB681A70FB6803F10103FB60BB6803F133
:1023F0000103BB607B6803F1FF337B607B68002BCC
:10240000ECD107F11407BD4680BC704780B485B09D
:1024100000AF78604FF00003FB6007E0FB6803F15A
:102420000103FB607B6803F101037B607B681B7821
:10243000002BF3D1FB6803F10103FB60FB68184636
:1024400007F11407BD4680BC704700BF80B485B05B
:1024500000AFF860B9607A607B68002B16D040F25C
:102460002813C1F200034FF000021A604FF000037E
:1024700067E040F22813C1F200031B6803F1010278
:1024800040F22813C1F200031A6000E000BF40F2DE
:102490002813C1F200031B68FA68D3181B78DBB25B
:1024A000202B23D140F22813C1F200031B68FA68E5
:1024B000D3181B78DBB2002BDBD117E040F22813D6
:1024C000C1F200031B681A46F9688A181278D1B263
:1024D000BA681170BA6802F10102BA6003F1010230
:1024E00040F22813C1F200031A6000E000BF40F27E
:1024F0002813C1F200031B68FA68D3181B78DBB2FB
:10250000202B0AD040F22813C1F200031B68FA689E
:10251000D3181B78DBB2002BD0D1BB684FF0000280
:102520001A7040F22813C1F200031B68FA68D3182E
:102530001B78DBB2002B02D14FF0FF3301E04FF0EC
:102540000003184607F11407BD4680BC704700BF62
:1025500080B483B000AF78607B684FF001021A70DE
:1025600007F10C07BD4680BC704700BF80B584B042
:1025700000AF78607B681B78DBB2FB7301E0FFF78C
:10258000CBFCFB7BDBB2002BF9D07B681B787B6834
:1025900003F1FF337B607B681B78DBB2FF2B09D133
:1025A0007B681B787B6803F101037B60FFF7B4FC59
:1025B00000BFE6E700BF07F11007BD4680BD00BFC2
:1025C00080B483B000AF78607B684FF001021A706E
:1025D00007F10C07BD4680BC704700BF80B582B0D4
:1025E00000AF78600B467B807B684FF000025A6634
:1025F0007B687A88A3F868207B6803F16A03184631
:10260000FFF7A6FF07F10807BD4680BD80B584B07F
:1026100000AF786039603B6803F16A031846FFF742
:10262000A5FF7868FFF7F2FEF8603B685B6EC3F1C8
:102630006302FB6803F103039A4202DA4FF0FF33AF
:102640004AE03A683B685B6ED31818467968FFF732
:102650006FFE3B685A6EFB68D2183B685A663B684F
:102660005A6E40F20403C1F200031B889BB21BB2F6
:102670004FEA23239BB2D9B23B6899543B685B6E07
:1026800003F101023B685A663B685A6E40F204034C
:10269000C1F200031B889BB2D9B23B6899543B68D6
:1026A0005B6E03F101023B685A663B685B6EFA6839
:1026B000D2B202F10302D1B23A68D1543B685B6EE8
:1026C00003F101023B685A663B6803F16A0318464E
:1026D000FFF776FF4FF00003184607F11007BD46DD
:1026E00080BD00BF80B584B000AF78607B6803F127
:1026F0006A031846FFF73AFF7B68B3F868301A465A
:1027000040F20403C1F200031B889BB21BB29A4241
:102710000FD07B6803F16A031846FFF751FF40F2C0
:10272000C453C1F200034FF003021A604FF00003DC
:1027300054E07B685B6E002B0FD17B6803F16A036A
:102740001846FFF73DFF40F2C453C1F200034FF0BB
:1027500003021A604FF0000340E07B685B6E03F1F8
:10276000FF337A68D35CFB60FB68DBB2A3F1030341
:10277000DAB27B6883F86B207B685B6EA3F103039E
:102780007A68D25C7B6883F86C207B685B6EA3F10F
:1027900002037A68D25C7B6883F86D207B6803F162
:1027A0006E017A687B68586EFB68C31AD218FB68A2
:1027B000A3F10303084611461A46FFF709FE7B689A
:1027C0005A6EFB68D21A7B685A667B6803F16A030B
:1027D0001846FFF7F5FE7B6803F16E03184607F114
:1027E0001007BD4680BD00BF80B582B000AF7860E5
:1027F00040F20403C1F200031B889BB21AB240F2FC
:10280000FC13C1F2000319687B68C91840F2086321
:10281000C1F2000343F8221040F20403C1F20003A6
:102820001B889BB21AB240F24C53C1F200034FF026
:10283000010143F82210FFF76FFB07F10807BD46BF
:1028400080BD00BF80B483B000AF786041F21C430C
:10285000C1F200037A689B184FF000021A7041F22F
:10286000C003C1F200037A684FF0010143F822105F
:1028700007F10C07BD4680BC704700BF80B483B031
:1028800000AF786041F21C43C1F200037A689B18E4
:102890004FF000021A7007F10C07BD4680BC70476C
:1028A00080B483B000AF786041F21C43C1F20003F2
:1028B0007A689B184FF001021A7040F24C53C1F233
:1028C00000037A684FF0000143F8221007F10C076B
:1028D000BD4680BC704700BF80B598B000AF78603F
:1028E0004FF00703BB6540F20413C1F200031B78ED
:1028F000DBB2012B40F0C58040F62030C1F2000071
:1029000007F1080319464FF00002FFF79FFD07F19A
:102910000803184642F6D471C0F20001FFF728FD03
:102920000346002B06D14FF00103FB654FF0060371
:10293000FB6430E007F10803184642F6DC71C0F290
:102940000001FFF715FD0346002B06D14FF00203EF
:10295000FB654FF00903FB641DE007F1080318460F
:1029600042F6E471C0F20001FFF702FD0346002BBE
:1029700006D14FF00303FB654FF00803FB640AE048
:102980004FF0010042F6EC71C0F20001FEF712FABE
:102990004FF00403FB6540F62030C1F2000007F160
:1029A000080319464FF00002FFF750FD40F62030B3
:1029B000C1F2000007F1080319464FF00102FFF7CA
:1029C00045FD40F20413C1F200034FF000021A70FB
:1029D000FB6D002B55D0FB6D032B52D84FF000033D
:1029E0007B651CE07A6D13464FEA83039B184FEA20
:1029F00083031A4640F66433C1F20003D31807F18B
:102A0000080210461946FFF7B3FC0346002B02D11B
:102A10007B6DBB6506E07B6D03F101037B657B6D20
:102A2000042BDFDD40F22823C1F200031B889BB298
:102A3000072B07D0FB6D012B04D1BB6D1846FFF7A8
:102A400001FF1EE040F22823C1F200031B889BB265
:102A5000072B07D0FB6D022B04D1BB6D1846FFF787
:102A60000DFF0EE040F22823C1F200031B889BB249
:102A7000072B06D0FB6D032B03D1BB6D1846FFF768
:102A80000FFF4FF00003BB644FF000033B6540F2C3
:102A90000403C1F200031B889BB21BB2062B06D1B4
:102AA00040F20403C1F200034FF000021A8040F22A
:102AB0000403C1F200031B889BB203F101039AB225
:102AC00040F20403C1F200031A803B6D03F10103DD
:102AD0003B6540F20403C1F200031B889BB21BB2AA
:102AE000052B06DD40F20403C1F200034FF00002A3
:102AF0001A8040F20403C1F200031B889BB21AB291
:102B000040F20863C1F2000353F8222040F2FC13A4
:102B1000C1F200031B689A420FD940F20403C1F2CC
:102B200000031B889BB21AB240F24C53C1F200035F
:102B30004FF0010143F822100EE040F20403C1F20D
:102B400000031B889BB21AB240F24C53C1F200033F
:102B50004FF0000143F8221040F20403C1F20003D9
:102B60001B889BB21AB240F24C53C1F2000353F8D7
:102B70002230012B0DD040F20403C1F200031B8868
:102B80009BB21AB241F21C43C1F200039B5C002BC2
:102B900002D13B6D052B8ADD40F20403C1F2000334
:102BA0001B889BB21AB240F24C53C1F2000353F897
:102BB0002230012B06D140F20403C1F200034FF092
:102BC00006021A8007F16007BD4680BD80B485B05B
:102BD00000AF78604FF00003FB6000BFFB687A68CD
:102BE00093428CBF00220122D2B203F10103FB60A9
:102BF000002AF3D107F11407BD4680BC704700BF1F
:102C000080B584B000AF4FF000037B8142F6F470D2
:102C1000C0F20000FFF7B6F94FF0000042F6FC7179
:102C2000C0F20001FEF7C6F84FF0010043F21001B8
:102C3000C0F20001FEF7BEF84FF00003FB604FF456
:102C4000CA40C1F6CD50FFF7CFFDFDF7FBFF4FF0B7
:102C500000037B6040F22C10C1F20000FFF742FD40
:102C600078607B68002BF5D040F6E020C1F20000D0
:102C7000FFF77CFC4FF000004FF00001FDF7EAFF8A
:102C8000FB68FA6802F10102FA601846FEF734F9AF
:102C900040F6E020C1F20000FFF792FC7B68A3F150
:102CA00003031B784FF0000079681A46FEF7F0FC2A
:102CB00049F28060C0F29800FFF796FDD4E700BFAC
:102CC00080B582B000AF43F22400C0F20000FFF7ED
:102CD00059F943F22800C0F2000040F22C11C1F271
:102CE0000001FFF793FC4FF000037B604FF03103CE
:102CF0003B804FF44043C2F209034FF000629A61F7
:102D00004FF4B440C0F26220FFF76EFD4FF4404331
:102D1000C2F209034FF00062DA614FF4B440C0F22E
:102D20006220FFF761FDE4E780B582B000AF4FF0AD
:102D30000003FB8043F23000C0F20000FFF722F9ED
:102D40004FF44043C2F209034FF080529A614FF2B0
:102D50008000C0F2FA20FFF747FD4FF44043C2F273
:102D600009034FF08052DA614FF28000C0F2FA207E
:102D7000FFF73AFDE4E700BF80B582B000AF43F251
:102D80003400C0F20000FFF7FDF84FF000037B6055
:102D90004CF24003C2F209034FF400629A614CF214
:102DA0008030C0F2C910FFF71FFD4CF24003C2F2A1
:102DB00009034FF40062DA614FF4B440C0F26220BC
:102DC000FFF712FDE4E700BF80B500AF43F23C001F
:102DD000C0F20000FFF7D6F84CF24003C2F209033C
:102DE0004FF400729A614FF4B440C0F26220FFF7D2
:102DF000FBFC4CF24003C2F209034FF40072DA61AB
:102E00004FF4B440C0F26220FFF7EEFCE4E700BFED
:102E100080B582B000AF4FF44043C4F20F034FF0CF
:102E2000FF32C3F8C4204CF24003C2F209034FF052
:102E3000FF321A604CF24003C2F209034FF0FF3236
:102E40005A614FF44043C2F209034FF0FF321A6057
:102E50004FF44043C2F209034FF000025A61FEF7FB
:102E600013F843F24402C0F200023B4692E803002A
:102E7000186003F10403198003F102034FEA1142C1
:102E80001A704FF02B031E4640F6E020C1F20000FE
:102E9000FFF75EFB40F22C10C1F200004FF0000182
:102EA000FFF79CFBFEF74EFF42F60140C0F2000028
:102EB0001A494FF6FF72C0F20F02FEF7A5FF42F665
:102EC000C140C0F2000016494FF6FF72C0F20F0277
:102ED000FEF79AFF42F62950C0F2000011494FF662
:102EE000FF72C0F20F02FEF78FFF42F67950C0F278
:102EF00000000D494FF6FF72C0F20F02FEF784FF8B
:102F000042F6C950C0F2000008494FF6FF72C0F205
:102F10000F02FEF779FFFEF7B3FFFEE70C0F00107C
:102F2000D00A001044170010F813001048050010D4
:102F300040F20803C1F2000318687047032AC9B2BF
:102F400070B407D822B10023C15401339342FBD19E
:102F500070BC704785070244034603D003F8011B89
:102F60009C07FBD10C02D51A641826043F2D34446B
:102F70001ADD1C605C609C60DC601C615C619C61B3
:102F8000DC611C625C629C62DC621C635C639C634F
:102F9000DC634033D51A3F2DEBDC05E01C605C6040
:102FA0009C60DC601033D51A0F2DF7DC02E043F88B
:102FB000044BD51A032DFADC9342C9D203F8011B46
:102FC0009342FBD1C4E700BF686900002000000005
:102FD0000A0D00006B696C6C000000007375737063
:102FE000656E6400726573756D650000696E76616B
:102FF0006C6964007A65726F000000002020202058
:10300000415F4B65726E656C20202020000000003F
:1030100020205265616C2054696D65204F5320203B
:10302000000000006F6E65004D41494C424F580052
:1030300074776F007468726565000000666F757262
:10304000000000006D796C696E6500000C000010D6
:043050004300000039
:1030540000E1F505070001010C000010000000006C
:10306400000000000000000000000000000000005C
:1030740000000000000000000000000050300000CC
:10308400000000000000000000000000000000003C
:10309400000000000000000000000000000000002C
:1030A400000000000000000000000000000000001C
:1030B400000000000000000000000000000000000C
:1030C40000000000000000000000000000000000FC
:1030D40000000000000000000000000000000000EC
:1030E40000000000000000000000000000000000DC
:1030F40000000000000000000000000000000000CC
:1031040000000000000000000000000000000000BB
:1031140000000000000000000000000000000000AB
:10312400000000000000000000000000000000009B
:10313400000000000000000000000000000000008B
:0C3144000000000000000000000000007F
:00000001FF
